:100000000C94AD010C94391A0C94CA010C94CA01D9
:100010000C94CA010C94CA010C94CA010C94CA0134
:100020000C94CA010C94CA010C9466210C943A22D7
:100030000C947A1C0C94CA010C94CA010C94CA0149
:100040000C94CA010C94CA010C94CA010C94CA0104
:100050000C94CA010C941D1D0C94CA010C94CA0185
:100060000C94CA010C94CA010C94CA010C94CA01E4
:100070000C94CA010C94CA010C94CA010C94CA01D4
:100080000C94CA010C94CA010C94CA010C94CA01C4
:100090000C94CA010C94CA010C94CA010C94CA01B4
:1000A0000C94CA010C94CA010C94CA0129001400D2
:1000B0001A00080015001700E100040016000700F0
:1000C00009000A00E3001D001B00060019000500DE
:1000D000000000002F00300021522C000000000022
:1000E000E0004A002A0039001C0018000C00120031
:1000F000340035000B000D000E000F00130033001C
:10010000110010003600370038003100280022525C
:100110002D002E00000000002B004C004D00E200DE
:1001200000000000010001000100010001000100C9
:1001300001001E021F022002210222020100010012
:1001400001000100010001000000000001000100A9
:100150000100010000000000010001000100010099
:10016000010059005C005F005400550001005A0076
:100170005D0060005600570001005B005E006100FA
:1001800067005800000001006200630000000000EA
:10019000010001000100010000000000007C0100DE
:1001A0004A0052004D004B00010001005000510078
:1001B0004F004E000100010001000100010001009C
:1001C000000000000100010001000000000000002C
:1001D0000100010001000100010001000100010017
:1001E0000100010023022402250226022702010049
:1001F00001000100010001000100010001000100F7
:1002000001000100000000000100010001000100E8
:1002100000000000280344006100630074007900BE
:100220006C0020004D0061006E00750066006F00DC
:1002300072006D00200034007800360000000E03CC
:100240007400730068006F00720074000000040303
:10025000090409023B00020100A0FA0904000001A0
:10026000030101000921110100012240000705815D
:100270000308000109040100010300000009211125
:10028000010001227B00070582032000011201000A
:1002900002000000084D443634010001020001054F
:1002A000010902A10185020901A10005091901291D
:1002B000081500250195087501810205010930091D
:1002C000311581257F95027508810609381581252C
:1002D0007F950175088106050C0A38021581257F76
:1002E000950175088106C0C005010980A10185033B
:1002F00019012AB700150126B70095017510810074
:10030000C0050C0901A101850419012AA0021501EB
:1003100026A002950175108100C005010906A10102
:10032000050719E029E715002501950875018102E7
:100330009501750881010507190029FF150026FFA1
:1003400000950675088100050819012905950575B0
:10035000019102950175039101C011241FBECFEFD9
:10036000DAE0DEBFCDBF11E0A0E0B1E0E2EEF9E4FB
:1003700002C005900D92AA3AB107D9F722E0AAEA85
:10038000B1E001C01D92A13BB207E1F70E94F71353
:100390000C94B0240C9400008330B8F46A30A8F4B4
:1003A000463098F450E096E0699F400D511D1124AD
:1003B000FA019CE3899FE00DF11D1124EE0FFF1F50
:1003C000E455FF4F85919491089581E090E0089560
:1003D0000E94CC01089581E0089581E008950E9473
:1003E000ED01089508950E94F2010895A5E0B0E09E
:1003F000ECEFF1E00C941C2449835A833091B10155
:1004000089819A81311119C0662399F0222389F0DC
:100410000E940808182F682F89819A810E94E4079A
:1004200069817A81812F0E94F10E2596E3E00C9478
:1004300038240E94F607182FF3CF0E94080869811C
:100440007A81F1CFFC01262F408151816281738135
:1004500084810E94F601089581E00895CF93DF938F
:10046000EC0160E00E942202BE010E94F301DF91D4
:10047000CF91089508950E94B3060E943A022FEF8B
:1004800084E39CE0215080409040E1F700C00000F0
:1004900008950E943B020E94411D08950E943B0264
:1004A0000E94521D08950F931F93CF93DF938C01E9
:1004B00061E00E942202EC01B8010E94EF0181116B
:1004C00006C080E0DF91CF911F910F910895B80190
:1004D000CE010E9457198823A1F3B801CE010E94D2
:1004E000A016882371F3B801CE010E94C918882391
:1004F00041F3F8018281882361F0C330FCE7DF0714
:10050000E9F058F4C115ECE7DE07A9F0C130DC478B
:10051000B9F0C8010E94EB01D5CFCB358CE7D807E5
:10052000A9F0CC35ECE7DE0771F0CA35DC4789F776
:100530000E94520CEECF0E944902C3CF0E945A0C77
:100540000E944E02BECF0E94480CE3CF0E94560C80
:10055000E0CF0E94571C0E94D00208950E94D4024E
:100560000E945C1C0895089581E008950895CF933A
:10057000DF93D82F0E94B402C82F882319F08D2F43
:100580000E94B6028C2FDF91CF9108950895CF93EA
:10059000C82F0E94B3028C2F0E94B702CF910895FA
:1005A00080E00E94C70208950E945F1B0E94C7025C
:1005B0000895CF930E945F1BC82F8091AC018C17C8
:1005C00079F0C093AC010E94E61C6093AD0170937A
:1005D000AE018093AF019093B0018C2F0E94C702AF
:1005E000CF910895ABE0B0E0E8EFF2E00C941D2469
:1005F0004F83588769877A878B8761110E94930B95
:100600001E821D8285E0FE013796DE011196019063
:100610000D928A95E1F78C819D81892B61F4498146
:100620005A816B817C818D819E810E94BB0A2B96B1
:10063000E2E00C94392489819A8189238F3F79F3F0
:10064000CE0101960E942C028111E9CFF0CFFC016E
:10065000808191810E943A080895662329F00E94C2
:100660007B140E944E1508950E94D514FACFCF93A3
:10067000C82F8823C9F08238C9F40E945F1B81FD0E
:1006800013C089E30E944B0B0E94B40B2FEF87EE3F
:1006900093E0215080409040E1F700C0000089E3E2
:1006A0000E94530B0E94B40BCF9108958338A1F49C
:1006B0000E945F1B80FDF8CF83E50E944B0B0E94D8
:1006C000B40B2FEF81EE94E0215080409040E1F791
:1006D00000C0000083E5E4CF8438A1F40E945F1BD2
:1006E00082FDE2CF87E40E944B0B0E94B40B2FEFF8
:1006F00081EE94E0215080409040E1F700C000007E
:1007000087E4CECF8CEF8C0F813AB8F48C2F0E9407
:100710000D188111C9CF6C2F8091000190910101BA
:100720000E94E81B882329F08C2F0E94530B0E9403
:10073000B40B8C2F0E944B0BB5CF80E28C0F88300E
:1007400048F4C77081E001C0880FCA95EAF70E949B
:10075000760BA8CFEBE5EC0FE33040F4F0E0E05A85
:10076000FE4F808190E00E948C1B9ECFE8E5EC0F4D
:10077000EB3150F4F0E0EE0FFF1FE65DFE4F80819D
:1007800091810E94B11B90CF83E38C0F833108F0DD
:100790008BCF61E08C2F0E942D0386CF882309F434
:1007A00056C0823879F40E945F1B81FF50C089E3F4
:1007B0000E944B0B0E94B40B89E30E94530B0E94D2
:1007C000B40B0895833859F40E945F1B80FF3FC02B
:1007D00083E50E944B0B0E94B40B83E5EECF843877
:1007E00059F40E945F1B82FF32C087E40E944B0BCA
:1007F0000E94B40B87E4E1CF9CEF980F913AE8F2A6
:1008000090E2980F983050F4877091E001C0990FF2
:100810008A95EAF7892F0E947C0BD1CF9BE5980F30
:10082000933028F490E080E00E948C1B089598E5B6
:10083000980F9B3128F490E080E00E94B11B08954E
:1008400093E3980F933118F460E00E942D0308950C
:100850001F93CF93DF93182FEB010E94370320974C
:1008600039F4812F0E94CE03DF91CF911F9108951B
:100870008FE99FE00197F1F700C000002197EFCFCB
:1008800070E060E0893311F460E570E00E942804B4
:100890000895882321F00E94760B0E94B40B0895DE
:1008A000882321F00E947C0B0E94B40B0895B0E0D5
:1008B000A0E0EDE5F4E00C9416246C01D62FC72FD0
:1008C000FC011281058102950F700E946C0BE82ECD
:1008D0008823E9F0E12E1123D1F08C2F807F803422
:1008E00051F080E28D0F8830F8F0011104C08C2F98
:1008F000807E8032C9F08091890282FF15C082E03B
:100900000E94170C0E946C0B91E0E82EE926BC2E89
:10091000B2949FE0B922FBE0FB15B8F1EB2DF0E0BB
:10092000EE54FB4D0C940724E12CF1CF0C2F0F70EB
:10093000C07F11F00295007F112399F0002359F038
:1009400080E28D0F883010F0D11107C0802F0E94F7
:10095000760B0E94B40B8D2F63C0802F0E94860BF4
:10096000F8CF8D2F0E94CE03002379F080E28D0F07
:10097000883010F0D11104C0802F0E947C0B03C07E
:10098000802F0E948C0B0E94B40B2B2D2850330B10
:100990002430310520F40E945F1B0E94C702EE2024
:1009A00089F00E94680B80FD0DC0F60112820E9442
:1009B000620B0E944207C6010E9473060E94620BEE
:1009C0000E945207CDB7DEB7E9E00C9432242C2FF9
:1009D0002F70F22EC07FC03219F0F29480EFF8220F
:1009E000DD2381F0D13009F449C0112309F451C04D
:1009F000002309F448C0F601858180FFACCF8F70D9
:100A0000858341C08091890282FD15C0112359F070
:100A1000FF2029F08F2D0E94760B0E94B40B80E0FE
:100A20000E943703B2CF80E00E94CE03FF2009F47A
:100A3000ACCF8F2DA2CF112381F0011106C00E94EF
:100A4000960B8F290E944904A0CF0130C1F70E9464
:100A5000960B8F290E949D0B98CF011106C00E9412
:100A6000AA0B8F2D0E94500490CF013009F48DCF36
:100A70008F2D0E9450040E94AA0B87CF112329F0CA
:100A8000063008F082CF8F2DDDCF053008F07DCF06
:100A9000E8CF002331F3D93349F4FFEF27EE33E0F9
:100AA000F15020403040E1F700C000008D2F0E943F
:100AB000CE036BCF8C2F86958695837069F081303D
:100AC00009F063CF8D2F9C2F9370111102C080E02D
:100AD00090E00E94B11B59CF8D2F9C2F9370111164
:100AE00002C080E090E00E948C1B4FCF612F8D2FC1
:100AF0000E942D034ACF8C2F8370A1F5111145CF91
:100B00004D2F429546954770440F440F2D2F2F705F
:100B100030E0042E02C0220F331F0A94E2F790E067
:100B200080E0D4FF09C08FE090E002C0880F991FD9
:100B30004A95E2F780959095C695C695C370822B2D
:100B4000932BC23049F058F4C13019F00E941207BB
:100B50001CCF0E94090719CF0E941B0716CF0E94C5
:100B6000060713CF8695112311F08C2F81708823EF
:100B700009F40BCF4D2F429546954770440F440F13
:100B80002D2F2F7030E0042E02C0220F331F0A9445
:100B9000E2F790E080E0D4FF09C08FE090E002C06F
:100BA000880F991F4A95E2F780959095C695C6954E
:100BB000C370822B932BC23049F058F4C13019F026
:100BC0000E947D07E2CE0E947407DFCE0E94860756
:100BD000DCCE0E942A07D9CECF70112329F08C2FAA
:100BE0000E9442078D2F2ECF8D2F0E9450048C2FF4
:100BF0000E945207CACED23F41F160F4D03FB9F013
:100C0000D13F81F0112309F446C00111A4CE8C2FED
:100C10008F711FC0D33F01F1D43FA1F780918902AA
:100C200082FD24C08C2F8F71112311F312C0112368
:100C300041F0053008F0A9CE8C2F8F710E94640717
:100C4000A4CE063008F0A1CEF7CF8C2F8F711111F2
:100C5000CFCF0E94420799CE112329F08C2F8F719C
:100C60000E94360792CE0E9431078FCE112349F0A1
:100C7000CF718C2F0E94420763E08C2F0E94F90BEA
:100C800084CE81E00E94170C023008F47ECE82E010
:100C90000E94170C7ACE002359F0D93309F006CF01
:100CA0008FEF97EEE3E081509040E040E1F7FCCE1B
:100CB0008C2F8F719DCF0F931F93CF93DF93EC01F8
:100CC000688179818A810E9445088C010E948F0782
:100CD0000E940507B801CE010E945704DF91CF9111
:100CE0001F910F910895CF93DF93EC018B819C812D
:100CF000892B29F08881998189238F3F51F4DF91D5
:100D0000CF910895CE010E945B06CE010E942E0273
:100D1000F6CFCE010E9453028111F4CF0E946C0BDA
:100D2000882369F38A81882351F38091890282FFA5
:100D3000E6CF82E00E94170CE2CF90E080E00E94B4
:100D40008C1B90E080E00E94B11B0E94930B0E94DC
:100D5000B40B0E946A150E944E1508950E945B0B09
:100D60000E949D0608950E94830B0E94AE0608957E
:100D700092959F70963091F058F4925F9F709230E8
:100D800058F4803F19F030F4883E30F481E0089543
:100D90009A5FF4CF843FD1F380E00895883EB0F3AA
:100DA000813FD1F7F3CFFC0183819481892B29F016
:100DB0008081918189238F3F11F480E008958081A3
:100DC00091810E943A080E94B8060895A5E0B0E01B
:100DD000ECEEF6E00C941D242596E2E00C94392408
:100DE000A6E0B0E0E6EFF6E00C941D242696E2E0E3
:100DF0000C94392408950E94FA0608950E94FB0677
:100E00009093D5018093D401089508950E94FE0621
:100E100008952091D4013091D501822B932B0E940B
:100E2000FE0608952091D4013091D50182239323A9
:100E30000E94FE0608952091D4013091D5018227A9
:100E400093270E94FE0608950E94FA0608950E94C4
:100E5000240708950E9427079093D3018093D2011D
:100E6000089590E080E00E942A07089521E030E094
:100E7000A90102C0440F551F8A95E2F7CA010E94DA
:100E80002A07089521E030E002C0220F331F8A951F
:100E9000E2F78091D2019091D301822B932B0E9493
:100EA0002A07089521E030E002C0220F331F8A95FF
:100EB000E2F7209530958091D2019091D301822361
:100EC00093230E942A07089521E030E002C0220FF8
:100ED000331F8A95E2F78091D2019091D301822746
:100EE00093270E942A0708952091D2013091D301BF
:100EF000822B932B0E942A0708952091D2013091D2
:100F0000D301822393230E942A0708952091D201BE
:100F10003091D301822793270E942A0708950895CC
:100F2000262F277091E001C0990F2A95EAF723E058
:100F3000769567952A95E1F7660F771F660F771FFD
:100F4000FA01E60FF71F50E040E0682F70E0819152
:100F5000DF0111979B01042E02C0369527950A9454
:100F6000E2F7217021952827292328272C934F5F0A
:100F70005F4F4430510559F70895A82FA77023E01B
:100F8000969587952A95E1F7880F991F880F991FE5
:100F9000FB01E80FF91F50E040E080E0219130E0D4
:100FA0000A2E02C0369527950A94E2F7217033275E
:100FB000042E01C0220F0A94EAF7822B4F5F5F4F85
:100FC0004430510559F70895262F9A3070F4863031
:100FD00060F4682F70E086E0989F600D711D112409
:100FE00042EB51E0822F0E9490070895292F9A30FA
:100FF00068F4863058F490E062EB71E036E0239FAD
:10100000800D911D11240E94BD07089580E0089570
:10101000B0E0A0E0EEE0F8E00C9416247C01009132
:10102000D2011091D3018091D4019091D501082B68
:10103000192BCFE0D0E0CC24C394D12CBC2EC60118
:101040000C2E02C0880F991F0A94E2F78023912387
:10105000892B49F4219790F7B12C8B2DCDB7DEB7B2
:10106000E9E00C943224B7018C2F0E94FD0E019709
:1010700089F3F3CFCF93DF93EC010E940808BE0100
:101080000E94FD0EDF91CF9108951F93CF93DF93C0
:10109000EB019091B101992339F0CB010E943A08FC
:1010A000DF91CF911F910895882369F0CB010E94B1
:1010B0000808182F682FCE010E94E407BE01812F77
:1010C0000E94FD0EEDCFCB010E94F607182FF6CF40
:1010D0001F93CF93DF93C091D60116E08091D70183
:1010E0008C1304C0DF91CF911F910895D0E01C9F15
:1010F000F0011D9FF00D1124E852FE4F40815181F7
:1011000062817381848195810E94F0062196C77067
:10111000E5CF409108025091090260910A02709156
:101120000B0280910C0290910D020E94F00608952E
:101130002091D6019091D70156E0291302C080E09A
:10114000089530E0529FF001539FF00D1124E852B2
:10115000FE4F7181761306C07081781303C07281CF
:10116000741304C02F5F3F4F2770E7CF81E00895CD
:101170001F93CF93DF9380910D02807F09F04BC0C6
:1011800080910A02882309F446C08091D601C0915B
:10119000D701409108025091090260910B027091B1
:1011A0000C02D42FD52316E0C817A9F190E06115E1
:1011B0007105A9F1DF3F99F1189FF001199FF00D1A
:1011C0001124DF01A852BE4F11962C9111972513BF
:1011D00026C02C91241323C012962C911297211112
:1011E0001EC013962D913C91261B370B283C3105D0
:1011F000B0F480910D028F70806180930D02E352F4
:10120000FE4F80818F708061808388E092E00E9431
:1012100073060E946808DF91CF911F91089501968F
:101220008770C2CFA1E1B0E0E8E1F9E00C941324AB
:101230008C0185E0F801DE011D9601900D928A95E2
:10124000E1F7D8011296EC90129788E0A82E82E080
:10125000B82E40910B0250910C024115510509F432
:1012600071C19091080220910902892F82238F3F3A
:1012700009F468C1CC901196DC90119713968D906B
:101280009C901497F0900A02F401E41BF50BFF20E8
:1012900009F406C180910D02382F307FE83CF1053A
:1012A00008F0C0C031118BC0FE2C2D1117C09C114D
:1012B00015C0E11013C08F70806180930D020E94F1
:1012C0008908C5010E94730680910D02D801159608
:1012D0008C938F2D6196ECE00C942F248114910453
:1012E000E9F08C2D8D218F3FC9F081E08E2580FFA4
:1012F00017C04E2D6D2D8C2D0E949808882381F0EB
:1013000088E092E00E94730686E0E8E0F2E0DF0108
:101310001D928A95E9F70E9489084FC080E0E7CFC7
:101320008114910449F18C2D8D218F3F29F181E0A9
:101330008E25B82FB170BB2E80FF37C04E2D6D2D7E
:101340008C2D0E949808A82E81112FC0CD86DE8694
:101350008D859E850E943A08292F22952F70243072
:1013600068F49F70223098F09923A9F0F8019581D4
:10137000907F89F4FA2CADCF80E0DBCF2A5F2F700D
:10138000223068F0C8010E947306AB2CF3CF99237A
:1013900011F0882379F3805E883060F3F3CF803FCB
:1013A00048F3815F833070F7E5CFEE2009F491CFE9
:1013B00080910D02816080930D02F12C8ACF2D1156
:1013C00005C09C1103C0EE2009F487C0C8010E942B
:1013D000D306882319F1EE2009F180910D028032A5
:1013E00070F0209108023091090238872F83198606
:1013F0009B868A868C87CE0107960E94730686E0BC
:10140000F801A8E0B2E001900D928A95E1F70E9400
:10141000B8080E948908FF24F3945BCFC8010E949A
:101420007306F9CF311112C0782D998A888AA601E6
:101430006E2D89890E94E60688E092E00E9473067C
:1014400086E0F50111928A95E9F765CF2D110FC05D
:101450009C110DC0E1100BC015968C93C8010E9421
:10146000730686E0F50111928A95E9F732CFC8013B
:101470000E94D306882391F2EE2081F280910D0222
:10148000803208F4BCCF20910802309109023A83DF
:1014900029831B829D828C828E83CE010196ADCFE3
:1014A000E83CF10508F040C0FE2CEE2009F4B6CF70
:1014B0002D112CC09C112AC080910D0280FD1DC0F1
:1014C000982F907FD1F015968C931597903F39F017
:1014D000982F907F905F8F70892B15968C93C80101
:1014E0000E94730686E0F801A8E0B2E001900D9238
:1014F0008A95E1F70E948908ECCE86E0F801A8E021
:10150000B2E001900D928A95E1F7E3CEC8010E9406
:10151000D306811174CF80910D02816080930D02FA
:10152000C8010E947306D5CE782D998A888AA601B3
:101530006E2D89890E94E60686E0F50111928A9552
:10154000E9F7D8CFEE2009F469CFC8010E94D3068D
:10155000F82E882309F462CF86E0F801A8E0B2E013
:1015600001900D928A95E1F788E092E00E942703AE
:101570000E94B808BFCFACE0B0E0E1ECFAE00C9418
:101580001C244F83588769877A878B879C87CE0175
:1015900007960E9412098823B1F08A859B85892BC2
:1015A00039F04F815885842F85238F3F09F06CC017
:1015B00016E08091D6019091D701891343C02C96F3
:1015C000E3E00C94382486E0FE013796DE011196A4
:1015D00001900D928A95E1F78A859B85892B41F3CD
:1015E0008F81988589238F3F19F32091D70130E0AF
:1015F000C9010196877099274091D60148171906AD
:1016000071F40E94B3061092D7011092D60186E0C1
:10161000E8E0F2E0DF011D928A95E9F7C9CF96E094
:10162000929FD001939FB00D1124A852BE4FFE018E
:10163000319601900D929A95E1F78093D7010E941F
:101640006808B6CF819FC001112488529E4F0E9426
:101650001209882309F4B3CFE091D6011E9FF0014F
:101660001124E852FE4F408151816281738184814F
:1016700095810E94F0068091D60190E001968770D6
:1016800099278093D60195CF69857A858B859C852E
:101690000E94F0068DCF682F80910001909101018A
:1016A0000E941E1C0895682F8091000190910101F5
:1016B0000E94211C089580910001909101010E94D7
:1016C000241C089580911602859585958595089529
:1016D000809116028770089590911602977081E0AC
:1016E00009F480E0089580912102089590912102EB
:1016F000892B80932102089580959091210298234F
:101700009093210208951092210208959091200251
:10171000892B809320020895809590912002982330
:10172000909320020895109220020895809117024C
:10173000089508950E94990B08959091890292FF4F
:1017400008C090911702981721F0809317020E9409
:101750009A0B089580911702882329F0109217029E
:1017600080E00E949A0B0895CF93DF93E0910001EF
:10177000F0910101809121028083E0910001F091BC
:101780000101808190912002892B80839091170222
:10179000992381F0E0910001F09101018081892B72
:1017A000808380910001909101010E94D61B8111DC
:1017B0000E94AA0BC0910001D091010148E050E0C5
:1017C0006EE072E0CE010E945824892B59F088E027
:1017D000FE01AEE0B2E001900D928A95E1F7CE01F4
:1017E0000E94731BDF91CF91089508950E94F50B1D
:1017F00008959091890292FF11C098E0899F90010D
:101800001124622B609316020E94420780911602F7
:101810008595859585950E94F60B08950E9442074F
:1018200008951092160280E00E94F60B08959091A0
:1018300016028095892380931602282F277091F431
:10184000282F082E000C330B9217130659F0909195
:10185000890292FF07C08595859585950E9452075C
:101860000E94110C08959091890292FB222720F981
:10187000281769F080FB92F9909389028091880281
:10188000909189020E947B0C82E00E94170C0895BF
:101890008091890282FB882780F991E089270E9444
:1018A000330C089581E00E94330C089580E00E947B
:1018B000330C08956FEF7FEF90E080E00E949A2450
:1018C000089590E080E00E94762421E0873E9E4FBC
:1018D00009F020E0822F089582E090E00E946E24BB
:1018E000089583E090E00E946E24089584E090E0E3
:1018F0000E9476240895BC0184E090E00E949A241E
:101900000895AB01BC018FE090E00E948E24089501
:10191000AB01BC0183E190E00E948E24089560E059
:1019200070E0CB010E94880C089560E070E0CB016C
:101930000E94810C0E948F0C089567EE7EEF90E06C
:1019400080E00E949A2460E082E090E00E947C2483
:1019500060E083E090E00E947C241092D501109218
:10196000D40160E074E184E090E00E949A2460E099
:1019700086E090E00E947C246FEF87E090E00E9478
:101980007C2440E050E0BA0188E090E00E948E2480
:1019900060E08DE090E00E947C2440E050E0BA01DD
:1019A00088E190E00E948E2460E087E190E00E9450
:1019B0007C2440E050E0BA018CE190E00E948E244B
:1019C00070E060E080E290E00E949A2440E050E005
:1019D000BA0188E190E00E948E240E94950C08953F
:1019E0000E949D0C0895682F8EE090E00E947C2458
:1019F0000895A5E0B0E0EFEFFCE00C941B240E94FA
:101A0000DA1C8C01809122029091230280179107A9
:101A1000A1F08FEF89838A831B820E94DA1C816088
:101A2000782F9D838C8349815A816B818D810E949F
:101A3000F20210932302009322022596E4E00C9414
:101A400037240E94E61C6093320270933302809325
:101A500034029093350260932E0270932F0280938C
:101A60003002909331020895089508950E94350D33
:101A7000089508950E94390D089581E0089587E240
:101A800090E10E94551B0E94340D0E94360D08956E
:101A90000E94F3110895089508950E944B0D0E942D
:101AA0004C0D08950E942A100E94C60208950E94BB
:101AB000D11C0E94E70F0E940E120E9454110E9436
:101AC000520D0E9488160E9418120E943A0D089525
:101AD000A5E0B0E0EEE6FDE00C9415240E943D0D7B
:101AE00081110CC00E94F90C0E94F3110E948C1508
:101AF0000E94D9022596EAE00C9431240E947711C5
:101B000084E2A82E82E0B82E750110E0F701019161
:101B10007F01812F0E9450101F5F1A3009F440C0CE
:101B20000817A1F38091360281FD0E9456100E9491
:101B3000480DC82E10E0812F0E945010082FF5018B
:101B400081915F01081731F1F12CEE24E394D02E3E
:101B5000D8268D2D8E21B1F0CC20A1F0F9821A83E8
:101B600091E0802F8E2109F490E09B830E94DA1C83
:101B70008160782F9D838C8349815A816B818D810F
:101B80000E94F202F394EE0CF6E0FF12E2CFF501B0
:101B9000319700831F5F1A3071F60E94210DA4CF88
:101BA0000813C0CF9FCF1F93CF93DF930E94020FE4
:101BB000EC01C11580E5D807F0F5C11580E4D80720
:101BC00008F09CC0C03ED10520F5CD3CD10508F001
:101BD00082C0C83AD10578F4C53AD10508F073C07F
:101BE000C130D10519F1209709F1C430D105F0F4C5
:101BF000D0E0C0E01BC0C33CD105D0F7C85AD0E04C
:101C0000CC0FDD1FCD59DE4F0990D881C02DD46493
:101C10000DC0C11580E2D80708F0D1C0C11581E020
:101C2000D80708F05AC0C83ED10510F7CE01DF91A1
:101C3000CF911F910895C03682E5D80718F5C034BA
:101C400082E5D80708F06BC0C03282E5D80708F0FB
:101C50005FC0C11582E5D80708F497C02C2F2695E0
:101C6000269580E2289F900111248C2F8370C1E07B
:101C7000D0E002C0CC0FDD1F8A95E2F7C22BD32B38
:101C8000DD68D4CFC03A82E5D80760F4C03882E579
:101C9000D80708F459C0CF71D0E0DC2FCC27C46F2F
:101CA000D06AC4CFC03C82E5D80708F462C0C03E09
:101CB00082E5D80708F09CCFDC2FCC27CC27DF713A
:101CC000C06FD06AB3CFC55AD0E0C756DE4FC881C7
:101CD000D0E0D064ABCFD065A9CF8D2F0E94A40FE8
:101CE000182FCE0199270E94020FC12FD0E0DC2FC0
:101CF000CC27CC27DF71C82BD92B98CFCE019927C1
:101D00000E94020FCC27DF70C82BD92BD06A8ECF50
:101D1000CF71D0E0DC2FCC27C16FD06A87CF2C2FBA
:101D200026952695277080E2289F900111248C2FFC
:101D30008370C1E0D0E002C0CC0FDD1F8A95E2F7CE
:101D4000C22BD32BDC6872CF2C2F269526952770BB
:101D500080E2289F900111248C2F8370C1E0D0E095
:101D600002C0CC0FDD1F8A95E2F7C22BD32BDA68B5
:101D70005DCF8C2F8F710E94A40FC82FD0E0DC2F75
:101D8000CC27CC27DF71D06251CF8C2F8F710E946E
:101D9000A40F55E0D695C7955A95E1F7CF70D0E0DE
:101DA000DC2FCC27282F30E084FF05C044E0220F31
:101DB000331F4A95E1F7C22BD32BD06937CF8D2F34
:101DC0008F710E94A40F182FCE0199270E94020F35
:101DD000C12FD0E0DC2FCC27CC27DF71C82BD92B2B
:101DE000D2CF462F7A3030F4663020F4672F0E942D
:101DF000E801089590E080E008950E94F10E0E94AD
:101E0000D30D089582389105B9F1B0F4813391056D
:101E100009F47DC048F48932910509F46DC08A3215
:101E2000910509F47BC008958533910509F45FC0DD
:101E30008933910509F10895833E9105D9F138F46C
:101E4000803E910529F1823E910579F10895863E03
:101E50009105D9F1873E910509F43EC0843E910574
:101E600041F52091890221FF24C08091880284FDE0
:101E700019C087EE90E0089520918802237009F040
:101E80005AC02091890223FF14C089E290E008958E
:101E90002091880220FD38C03091890230FF09C0AE
:101EA00024FF43C090E080E008952091880222FD45
:101EB000F7CF08952091880222FD3AC0309189021F
:101EC00030FD39C024FFF5CFEDCF2091880223FFEC
:101ED000F0CF24FDE7CFCDCF2091880223FD2EC087
:101EE0003091890231FFEECF84EE90E00895209189
:101EF000880225FFDECFC9CF2091880225FD21C0B1
:101F00002091890223FFD5CF89E390E0D2CF2091A1
:101F1000880226FFCECF8AE290E0089520918802C1
:101F200026FFC7CF81E390E0089583EE90E0089507
:101F300082EE90E0089580EE90E0089586EE90E0C5
:101F4000089585E390E008959091880292FF06C07D
:101F5000282F28712830F9F4877F846093FF06C00A
:101F6000282F28712831F1F4877E8461209189021D
:101F700020FF06C0382F38713830D9F4877F816050
:101F800021FF06C0282F28712831D1F4877E816176
:101F900094FD877E0895282F24712430F9F68B7FD5
:101FA0008860DCCF282F2471243101F78B7E886173
:101FB000DDCF382F3171313019F78E7F8860E0CF57
:101FC000282F2171213121F78E7E8861E1CF109277
:101FD0008402109285021092860210928702089560
:101FE000CF92DF92EF92FF926B017C010E94F3117E
:101FF00081110EC00E94E61CC61AD70AE80AF90A27
:10200000C0928402D0928502E0928602F09287020A
:10201000FF90EF90DF90CF9008950F931F930E9451
:10202000F311882329F00E94E61C1F910F91089557
:102030000E94E61C00918402109185022091860284
:1020400030918702600F711F821F931FEECF80E0D7
:10205000089508950E94610C811102C00E94F00C45
:102060000E946C0C809336020E94760C9093890239
:10207000809388020E9429100E94710C90E00E94B7
:1020800006078091D2019091D3010E9427070895FD
:1020900008950E944810089508950E944C100895D4
:1020A000E82FF0E0EB56FD4F80810895089580EA17
:1020B0008A95F1F7089500C008950E945710089579
:1020C00008950E9460100895A5E0B0E0EAE6F0E10E
:1020D0000C9419240E94F311F82E60919F0288231A
:1020E00009F440C085E0E82E8E010F5F1F4FF80114
:1020F0008E2D11928A95E9F7862F90E0B8018B56C4
:102100009D4F0E9426128823B9F080918A0290E0A8
:1021100045E050E0B8018B569D4F0E94582421E0C5
:1021200020933702892B91F4F12C0E944D108F2DB2
:102130002596E6E00C943524809137028823A1F39C
:10214000F8011192EA94E9F710923702A0918A02FD
:10215000B0E0AB56BD4F85E0F80101900D928A9535
:10216000E1F7E3CF70E06B567D4F80918A0290E0FB
:102170008B569D4F0E94AD120E946110D8CFF894EB
:10218000E82FE295EF70F0E031A1282F2F7081E069
:1021900090E001C0880F2A95EAF7982F9095932335
:1021A00091A392A1892B82A3789408950F931F93F2
:1021B000CF93DF93C2EAD1E089918F3F11F00E9463
:1021C000BF1081E0C73AD807B9F7CCE9D1E002EAFD
:1021D00011E089918F3F11F00E94BF100C171D076D
:1021E000C1F7DF91CF911F910F910895B0E0A0E06A
:1021F000ECEFF0E10C941724EC01D62E062F10E042
:10220000C8018E559E4F7C01FC0180818F3F09F4EF
:1022100044C0F894E82FE295EF70F0E091A18F7040
:1022200021E030E001C0220F8A95EAF7892F822B46
:1022300081A382A12095282322A378940E945B1079
:10224000ECE9F1E031E0C12C21912F3F59F1A22FAF
:10225000A295AF70B0E090968C9190E02F7002C084
:10226000959587952A95E2F780FD1CC0832FC82A93
:10227000330F81E0E23AF80739F7F70180818F3FA9
:1022800011F00E94BF1061E0C11001C060E08D2D0F
:102290000E945D10C00FD11FC882CDB7DEB7E8E045
:1022A0000C94332480E0E3CF8091020180910201FD
:1022B00095E0811190E090939F0285E0891B8093C7
:1022C0008A020E94D6108AE0E5E9F2E0DF01982F49
:1022D0001D929A95E9F7EBE8F2E0DF011D928A95ED
:1022E000E9F785E00E94B5110E9449100895AAE01F
:1022F000B0E0EDE7F1E10C941A248E010F5F1F4F5F
:102300008AE0F80111928A95E9F7F12C6F2DC80146
:102310000E94F610F394F5E0FF12F8CF4AE050E087
:10232000B8018BE892E00E94582421E0009709F45C
:1023300020E0892B41F08AE0F801ABE8B2E001909F
:102340000D928A95E1F760919F0270E06B567D4F88
:1023500045E08BE892E00E94B611182F0E946410AD
:10236000812B2A96E5E00C9436240895CF92DF92D3
:10237000EF92FF920F931F93CF936C017B01042F79
:10238000222349F081E080933A020E94DA1C909364
:10239000390280933802C0913A02C1110AC0C0E0EC
:1023A0008C2FCF911F910F91FF90EF90DF90CF90E6
:1023B000089580913802909139020E94F21C05978D
:1023C00070F310E0A801B601C7010E945824892BC0
:1023D00041F0A801B601C7010E94652410923A029B
:1023E000DFCFC0E0FBCF80913D02811107C00E948A
:1023F000E623882351F081E080933D0281E09091B3
:102400003D02913009F080E0089582E080933D0222
:102410000E94E123F3CF0E94F31108950E940B1252
:10242000809302010E94F31181110E945C120895B1
:102430000E94F311811102C00E945F12089581E091
:1024400090913E029A3008F080E008950F931F9318
:10245000CF93DF93EC018B0180913E028A30B8F478
:10246000B801CE010E94AA12C82F811122C080910A
:102470003E028F3FB9F40E94DA1C90933C02809395
:102480003B028C2FDF91CF911F910F910895809186
:102490003B0290913C020E94F21C843F914000F765
:1024A000C0E0EFCF8F5F80933E028A3020F7C1E01B
:1024B000E8CF10923E02E5CF0E94F31908950E94E2
:1024C000F6190895B0E0A0E0E8E6F2E10C941824D3
:1024D0007901C82F880FDD0B41155105A9F0FE01C8
:1024E00093E0EE0FFF1F9A95E1F7ED5FFE4F8181BC
:1024F0009281815C9D4F208130E04217530708F4A0
:102500009A01A9010E946524CE010E94DF1AD82EEB
:102510008823D1F001151105B9F083E0CC0FDD1F40
:102520008A95E1F7FE01ED5FFE4F438150E004170D
:10253000150708F4A801CD5FDE4F6C817D81615CD9
:102540007D4FC7010E9465248D2DCDB7DEB7E7E032
:102550000C9434240E949C1308950E94B313089590
:10256000A4E0B0E0E6EBF2E10C941B24609156028B
:102570007091570280915802909159020E94011D5A
:1025800011E0643671058105910518F10E940D1066
:102590006E5F7F4F8F4F9F4F69837A838B839C83BE
:1025A00010E000E030E020E044E050E0BE016F5F6A
:1025B0007F4F82E00E946212182F882351F00E9400
:1025C000E61C6093560270935702809358029093D2
:1025D0005902812F2496E4E00C943724B0E0A0E067
:1025E000E4EFF2E10C9415247C015B016A010E9486
:1025F0001F1201E010E0882311F00AE010E0C1E0B2
:10260000D0E0B501C701F6010995811104C02196FA
:102610000C171D072CF4CDB7DEB7EAE00C9431247B
:10262000CC9F9001CD9F300D300D112490E080E0C3
:1026300045E34A95F1F70000019682179307C1F729
:10264000E0CFA6E0B0E0E7E2F3E10C9415247B01D3
:10265000C090A701D090A80101E010E09E012A5F80
:102660003F4F50E040E070E060E080E00E94621286
:10267000182F882309F448C056018FEFA81AB80A0A
:1026800060915202709153028091540290915502D0
:102690000E94011D643671058105910568F105E010
:1026A00010E09E012F5F3F4F50E040E070E060E09F
:1026B00081E00E946212D82E65E070E0C5010E94A0
:1026C000891611E09E81981310E01D2141F10E94AE
:1026D000E61C6093520270935302809354029093CD
:1026E000550285E0FE013196ADE4B2E001900D9215
:1026F0008A95E1F711E013C065E070E0C5010E9422
:1027000089169E818913CBCF85E0F6013196DE01D3
:10271000119601900D928A95E1F71111E2CF85E0B3
:10272000EDE4F2E0D70101900D928A95E1F7812F57
:102730002696EAE00C9431240F931F93CF93DF93F6
:10274000EC018B0141E253E10E94EE12882331F04B
:1027500040EB52E1B801CE010E94EE12DF91CF9121
:102760001F910F9108950F931F93CF93DF93C09103
:10277000A701D091A801CE01019625E0FB01DC0163
:1027800001900D922A95E1F765E070E00E948916AC
:1027900088836E817F818885998500914902109197
:1027A0004A0220914B0230914C0260177107820758
:1027B000930751F06093490270934A0280934B0251
:1027C00090934C020E94F00FDF91CF911F910F91D7
:1027D00008950E94B71E0E94570D0E94C41E0895BE
:1027E0000E94C91E0E94680D0E94E31E08950E9467
:1027F000731C0E949D1E0E943F0D0E94E9130E94BF
:10280000F0130E944D0DFBCF8091620280FF0DC03E
:1028100060911F0170E0660F771F6038710570F5D9
:102820006115710569F1862F089581FF07C06091D8
:102830001F0184E0689FB0011124EFCF60911F0158
:1028400082FD0AC0809161028823A9F020911E01B7
:1028500060911F01821710F088E0ECCF869FC001C5
:10286000112433E0880F991F3A95E1F7622F70E049
:102870000E94F323D2CF68E070E0D5CF8FE70895B0
:1028800081E008958091620280FF0CC060911C017C
:1028900070E075956795759567956115710549F1B6
:1028A000862F089581FF06C060911C0170E0759528
:1028B0006795F3CF60911C0182FD0BC0909160027F
:1028C0009923A1F060911B0180911C01961738F0AB
:1028D000682F70E06038710500F38FE70895899FD5
:1028E000C001112470E00E94F323F4CF61E070E096
:1028F000D7CF81E008958D3C31F40E940414819576
:102900008093660208958E3C19F40E940414F8CF57
:102910008F3C31F40E9404148195809365020895E0
:10292000803D19F40E940414F8CF893D29F40E94D7
:1029300042148093670208958A3D21F40E94421454
:102940008195F7CF8B3D31F40E944214819580939D
:10295000680208958C3D19F40E944214F8CF9FE25A
:10296000980F983070F4815D990B21E030E001C040
:10297000220F8A95EAF780916402822B8093640289
:1029800008958D3D31F480916202816080936202EE
:1029900008958E3D21F4809162028260F7CF8F3DD1
:1029A000B9F7809162028460F1CF409165028D3C5D
:1029B00059F48091660287FF0DC0109266024111A2
:1029C0000BC01092610208C08E3C81F480916602B7
:1029D00018169CF3442381F080916702909168025D
:1029E000892B09F05AC01092600208958F3C49F477
:1029F00047FFF0CF10926502809166028111ECCF03
:102A0000E0CF803D19F41416ACF3E4CF9091670247
:102A1000893D29F41916F4F610926702DBCF8A3D3E
:102A200019F497FFD7CFF8CF909168028B3D29F426
:102A300097FFD0CF10926802CDCF8C3D19F41916B4
:102A4000CCF3C8CF9FE2980F983090F4815D990B3A
:102A500021E030E0B90102C0660F771F8A95E2F7E6
:102A6000CB01809590916402892380936402B2CF58
:102A70008D3D31F4809162028E7F80936202AACFF5
:102A80008E3D21F4809162028D7FF7CF8F3D09F05A
:102A9000A1CF809162028B7FF0CF08950E94DA1C53
:102AA0009C019091650280916602982B21F03093F1
:102AB0005F0220935E029091670280916802982BDA
:102AC00021F030935D0220935C0283E692E00E9445
:102AD0007E1B089586E0E3E6F2E0DF011D928A9511
:102AE000E9F710926102109260021092620208955A
:102AF000FC01828181110EC0838181110BC0848110
:102B0000811108C091E08581811101C090E0892F79
:102B10008170089581E0FCCFA6E0B0E0E2E9F5E144
:102B20000C941C2486E0E3E6F2E0DE0111960190AD
:102B30000D928A95E1F7109265021092660210924A
:102B40006702109268028B819C81892B89F08091A9
:102B50005E0290915F020E94F21CAC0190916102B2
:102B60009923C9F1809120018417150608F440C00B
:102B70008D819E81892B91F080915C0290915D0204
:102B80000E94F21CAC0190916002992309F471C07B
:102B900080911D018417150608F479C0BE016F5F8E
:102BA0007F4F83E692E00E942B1C811105C083E6D3
:102BB00092E00E94781581110E944E1586E0FE0178
:102BC0003196A3E6B2E001900D928A95E1F7269640
:102BD000E3E00C94382420915B028AE0289F900166
:102BE00011242417350720F69F5F9093610202C0DD
:102BF0009F3FD1F71B81112359F00E9404149FEFCE
:102C000011160CF491E0899F802D112480936502A8
:102C10001C81112359F00E9404149FEF11160CF42B
:102C200091E0899F802D1124809366023091650286
:102C3000332309F49DCF20916602222309F498CF13
:102C400045EB3403C0011124992359F09093650298
:102C500045EB240390011124332339F030936602AD
:102C600087CF81E080936502F3CF81E08093660295
:102C70007FCF20915A028AE0289F900111242417C7
:102C8000350708F08BCF9F5F9093600202C09F3F93
:102C9000D1F71D81112359F00E9442149FEF1116A4
:102CA0000CF491E0899F802D1124809367021E818E
:102CB000112359F00E9442149FEF11160CF491E079
:102CC000899F802D112480936802309167023323FD
:102CD00009F464CF20916802222309F45FCF45EB09
:102CE0003403C0011124992359F09093670245EBF6
:102CF000240390011124332339F0309368024ECF1E
:102D000081E080936702F3CF81E08093680246CF31
:102D10000895FC01680F791F8FEF91E3E617F7071D
:102D200009F408952191822728E030E087FF06C04A
:102D3000880F892721503109C9F7F0CF880FFACFC2
:102D4000CF93DF93EC01FB018281882309F4D2C089
:102D50009E0130572332310508F0B2C00E94760C34
:102D60009093890280938802FE01E150F047E2329D
:102D7000F10520F4E254FB4D0C9407248091880265
:102D800081608093880293C08091890288608093DB
:102D900089028DC0809188028260F3CF8091880281
:102DA0008460EFCF809188028860EBCF80918902A8
:102DB0008160EDCF809189028260E9CF80918802A5
:102DC0008061DFCF809188028062DBCF80918802B2
:102DD0008064D7CF0E94B306809188028068D1CFEB
:102DE000809188028C60CDCF809189028360CFCFA3
:102DF000809188028E7FC5CF80918902877FC7CF5F
:102E0000809188028D7FBDCF809188028B7FB9CF62
:102E100080918802877FB5CF809189028E7FB7CF5E
:102E2000809189028D7FB3CF809188028F7EA9CF58
:102E3000809188028F7DA5CF809188028F7BA1CF62
:102E40000E94B306809188028F779BCF8091880281
:102E5000837F97CF809189028C7F99CF8091880260
:102E600082FB992790F921E0922790FB82F990FB51
:102E700083F987CF80918902982F909591708E7FEA
:102E8000892B90FB81F983CF90918802892F8F7BCA
:102E900096FF806476CF0E94B30690918802892FB6
:102EA00097FB87F980586DCF81E00E94F30C8091E9
:102EB0008802909189020E947B0C0E94B30680E0F8
:102EC000DF91CF91089580E0F0CF90918802892F13
:102ED0008F7E94FF806155CF90918802892F8E7FDD
:102EE00090FF81604ECF90918902892F877F93FF59
:102EF00088604DCF81E0E4CF8B3109F465C040F5A7
:102F00008B3071F078F4863009F447C020F48530B6
:102F100059F180E00895873009F448C08830C9F736
:102F200081E00895803109F45DC068F48E3089F73E
:102F300090913602892F8B7F92FF846080933602B6
:102F400082FD4CC0EDCF863159F3893149F3E1CF91
:102F50008A3201F160F48732B1F020F48E31C8F288
:102F60008D514CC08932A9F60E944902D9CF8334D1
:102F700040F48A3308F041C0853329F0883381F268
:102F8000C8CF833431F681E090E00E9406070E94AA
:102F9000B306C6CF0E94F00CC3CF80913602807F6B
:102FA0008093360281E080936C02089590913602FE
:102FB000892F8E7F90FF81608093360280FDB0CF95
:102FC000817F80933602ACCF90913602892F8D7F1E
:102FD00091FF82608093360281FFA2CF80913602FA
:102FE0008160EFCF90913602892F877F93FF8860B1
:102FF0008093360283FDF2CF93CF895321E030E0F6
:10300000A90102C0440F551F8A95E2F7CA01BDCF3E
:1030100080E008950E9408180895CF93C82F8091EA
:103020006C028130B9F0882331F08230A1F1109226
:103030006C0280E00DC00E94730B8232D1F78C2F9E
:103040000E94081881111BC08C2F0E947C17817070
:10305000CF9108950E94730B823289F38C2F0E94C6
:103060000A1881110AC0C43199F060F4CB3029F0FC
:10307000C03169F782E080936C0281E0E8CF81E0A3
:1030800090E0E5CFC93221F0C833B9F380E0DFCF5B
:1030900010926C02FBCFC93209F43FC0E8F4C4318E
:1030A000E1F128F4C73009F45BC081E0D1CF82EEB2
:1030B0008C0F8A30D0F7CD51C0936B02C33009F426
:1030C00046C0B0F5C13009F43FC080E291E0C230A3
:1030D000B1F110926B02E9CFC03509F452C0B8F4D7
:1030E0008AE0CF3411F7E0916902F0916A023097DB
:1030F000E1F22081082E000C990B820F911D8F3F69
:10310000910509F00CF441C08FEF8083CECFC1351B
:10311000D1F181E0C23539F39BCF80916B028823D6
:1031200021F210926B0210926A0210926902BDCFD6
:10313000C53099F078F08BE191E0C63051F690936C
:103140006A0280936902B1CF8BE592E0F8CF8FE1FC
:1031500091E0F5CF8EE191E0F2CF8CE191E0EFCFFD
:1031600010925B0284E180932001C0931F018CE3E5
:1031700080931E0188E080931C0188E280931B01EC
:1031800094CF86EFB0CF8FEFAECF97FFBECF108238
:103190008CCFCF93DF93EB0186319C4711F50E94D2
:1031A000730B9A81992399F08A7A91E009F490E05F
:1031B00090936D02811109C089E20E944B0B0E941D
:1031C000B40B80E0DF91CF91089585E3F6CF809135
:1031D0006D02811104C089E20E94530BF0CF85E398
:1031E000FBCF81E0EFCF0F931F93CF93DF93C42FDB
:1031F000D22FFC0182818823C9F0409370020E9483
:10320000DA1C90936F0280936E0280E28C0F8830FC
:1032100040F4C77081E001C0880FCA95EAF70E94A8
:103220004904DF91CF911F910F9108951091700281
:10323000141332C080916E0290916F020E94F21CB2
:10324000883C910548F5C0E2CD0F1D17B9F080E22A
:10325000810F883040F4177081E001C0880F1A9503
:10326000EAF70E945004C83048F481E09D2F97701F
:1032700001C0880F9A95EAF70E944904802F0E94A6
:103280004004C83070F6D77081E001C0880FDA952D
:10329000EAF70E945004C5CF80E28C0F883008F610
:1032A000C77081E001C0880FCA95EAF7F2CF0F938B
:1032B000DB0188519C4787309105A0F5FC01E05265
:1032C000FB4D0C94072406E221EE41EE6AE17CE717
:1032D000CD010E94F31880E00F91089507E225EEDA
:1032E00045EE6BE17CE7F4CF06E221EE40EE68E1CB
:1032F0007CE7EECF07E225EE44EE69E17CE7E8CF1C
:1033000006E221EE42EE6CE17CE7E2CF07E225EE39
:1033100046EE6DE17CE7DCCF08E221E045EE6EE1B0
:103320007CE7D6CF12968C91882319F01092700208
:10333000D3CF81E0D1CF8EE1489B02C08150E1F72D
:10334000489BFECF0895589880E28A95F1F7589AE5
:103350000895FC013BE03A95F1F798E020E080E029
:1033600031E040E14A95F1F7880F489B02C0816047
:10337000232742E04A95F1F7000040E14A95F1F732
:10338000915079F790E19A95F1F799B132E03A9539
:10339000F1F7000040E14A95F1F791709227208102
:1033A000920F90830895A1E0B0E0E9EDF9E10C946B
:1033B000192419828C017C01E60EF11C0E151F05E3
:1033C00041F481E09981911180E02196E6E00C942E
:1033D00035240E949B19CE0101960E94A919F8017B
:1033E00081938F01EBCF509A589A08955098589A2C
:1033F000E89AE9E6F0E080818C7F8083089561504F
:10340000770B91E001C0990F6A95EAF720E031E06F
:10341000911108C0222391F0589A80E28A95F1F721
:1034200058980895492F482339F0589A232740E2A5
:103430004A95F1F79695ECCF5898F9CF5898EDCF7B
:10344000FF920F931F93CF93DF93EC018C01060F34
:10345000111DC017D10729F4CDB7DEB7E5E00C94F4
:103460003624F9900E94A31968E08F2D0E94FF195D
:10347000F0CF1F920F920FB60F9211240F931F934C
:103480002F933F934F935F936F937F938F939F936C
:10349000AF93BF93EF93FF93CF93DF930F92CDB78B
:1034A000DEB719820E949B19CE0101960E94A919CC
:1034B000082F069506950695282F22952570902FA2
:1034C0009570290F922F937026952695920F982725
:1034D00097708981982B09F05CC0043008F059C0BE
:1034E00080E18A95F1F7589A509A82E08A95F1F72F
:1034F00000C0589888E0089F80011124D801AD5F72
:10350000BE4F1696ED91FC9117973097A9F06091F8
:10351000A7017091A80114962D913C911597260F43
:10352000371F11968D919C911297680F791F1396F2
:103530004C9113978C910995F801ED5FFE4F6381D3
:10354000662351F02091A7013091A80184819581D3
:10355000820F931F0E94201A0E94A31980E18A956E
:10356000F1F758985098589A80E18A95F1F7F80148
:10357000ED5FFE4F6081662351F02091A7013091ED
:10358000A80181819281820F931F0E94D3190E940A
:103590009B190F90DF91CF91FF91EF91BF91AF9168
:1035A0009F918F917F916F915F914F913F912F915B
:1035B0001F910F910F900FBE0F901F9018950F93B2
:1035C0001F93CF93DF93EC0104970CF04CC0F89459
:1035D000509A589885E08A95F1F700009C2F9695AF
:1035E00095708C2F8570980F892F8370969596957E
:1035F00023E0CC0FDD1F2A95E1F7980F8E01092BF0
:103600000E94A31900C068E0802F0E94FF1980E18A
:103610008A95F1F75098589A489B1EC087E090E031
:1036200048991CC0FE01ED5FFE4F63816623F9F0EF
:103630002091A7013091A80184819581820F931F69
:103640000E94D319811113C0509A589A7894DF912F
:10365000CF911F910F91089500C0DECF019729F4FB
:10366000509A589A789480E0F2CF00C0D9CF0E9447
:103670009B1980E28A95F1F75898509A80E18A95D3
:10368000F1F7CD5FDE4F6881662351F02091A701ED
:103690003091A80189819A81820F931F0E94201A7C
:1036A0000E94A319789481E0D2CF9093AB018093CC
:1036B000AA010895909377028093760208950E945C
:1036C000F311811103C0809171020895E091760297
:1036D000F0917702309729F00190F081E02D099563
:1036E000089580E00895E0917602F0917702309796
:1036F00021F00280F381E02D09950895E091760292
:10370000F0917702309739F022E0DC012C930480AD
:10371000F581E02D09950895A3E0B0E0E2E9FBE131
:103720000C941D24209174023091750228173907DA
:10373000A1F09093750280937402E0917602F0916B
:103740007702309751F023E029839B838A83068098
:10375000F781E02DCE01019609952396E2E00C94C5
:103760003924A3E0B0E0E7EBFBE10C941D242091A9
:1037700072023091730228173907A1F090937302F7
:1037800080937202E0917602F0917702309751F0C7
:1037900024E029839B838A830680F781E02DCE0174
:1037A000019609952396E2E00C9439249C012E5F42
:1037B0003F4FAC01485F5F4F80E02417350709F4A5
:1037C0000895F90191919F019923B9F38F5FF5CF86
:1037D000662349F0FC01329608962191261729F0BC
:1037E000E817F907D1F780E0089581E008959C017A
:1037F000FC0132969FEF80E04191461751F09F3FC8
:1038000019F4411101C0982F8F5F8630A9F79F3FAF
:1038100009F40895290F311D97FD3A95F901628346
:103820000895FC01329608962191261303C0DF010A
:1038300011971C92E817F907B9F708950E94F71B32
:1038400008950E94111C0895029626E0FC01119231
:103850002A95E9F7089546E050E00E94582421E0B7
:10386000892B09F420E0822F089508950E94351CC9
:103870000895811106C081E0809378020E94361C71
:10388000089582E0F9CF83E0809378020E94361C8D
:1038900008950E94391C089581E0809378020E9467
:1038A000361C08950E944C1C0895089508950E94A6
:1038B000561C0895089508950E94551C0895CF93AD
:1038C0000E945A1C0E9477110E945B1CC0E08C2F42
:1038D0000E945010811105C0CF5FCA30C1F7CF914F
:1038E000089581E0FCCF85B7806885BF85B7806883
:1038F00085BF08951F921FB61F9211248F939F9327
:10390000AF93BF9380917902811113C08091A0027F
:103910009091A102A091A202B091A3024196A11D93
:10392000B11D8093A0029093A102A093A202B09334
:10393000A302BF91AF919F918F911F901FBE1F90C7
:1039400018958091A802843031F10E94A90210924A
:10395000790288E190E020E40FB6F894A89580936E
:1039600060000FBE2093600083B7817F846083BFB7
:1039700083B7816083BF7894889583B78E7F83BF38
:103980000FB6F894A89580916000886180936000DC
:10399000109260000FBE08950E94B3060E94AE020E
:1039A000089582E084BD93E095BD9AEF97BD809322
:1039B0006E0008952FB7F8948091A0029091A10213
:1039C000A091A202B091A3022FBF08952FB7F8943F
:1039D0006091A0027091A1028091A2029091A30235
:1039E0002FBF08959C014FB7F8948091A002909149
:1039F000A102A091A202B091A3024FBF821B930B20
:103A00000895CF92DF92EF92FF922FB7F894C09073
:103A1000A002D090A102E090A202F090A3022FBFDA
:103A2000A7019601261B370B480B590BCA01B90198
:103A3000FF90EF90DF90CF90089578941F921FB67B
:103A40001F9211248F939F93AF93BF938091A002F5
:103A50009091A102A091A202B091A3020196A11D92
:103A6000B11D8093A0029093A102A093A202B093F3
:103A7000A302BF91AF919F918F911F901FBE1F9086
:103A8000189587E797E7909301088093000888E1ED
:103A90009AE00FB6F894A895809360000FBE9093BB
:103AA0006000FFCF88E19AE00FB6F894A895809364
:103AB00060000FBE90936000FFCF80918202089556
:103AC0009B01BA019091A8029430E9F48F70809321
:103AD000E9009FEF8091E800915085FD06C085EDDB
:103AE0008A95F1F700009111F5CF8091E80085FFEC
:103AF0000AC050E040E0C9010E945A1F8091E800CE
:103B00008E778093E800089543E050E0BC0182E0A6
:103B10000E94601D089546E050E0BC0182E00E94D2
:103B2000601D0895CF93DF93EC0148E050E0BC01A5
:103B300081E00E94601D88E0FE01AAE7B2E00190EA
:103B40000D928A95E1F7DF91CF9108958091A702B8
:103B5000811109C00E94EA200E9447218091E20061
:103B600084608093E20008951092A70208950E9455
:103B70004C1C08956091A40281E0611101C080E0B5
:103B80000E94431C08959091A80281E0943009F0AE
:103B900080E06091A4020E94491C089542E061EC1B
:103BA00081E00E94662042E261EC82E00E94662091
:103BB0009091A80281E0943009F080E06091A40225
:103BC0000E94391C08958091AA02833009F461C0D3
:103BD00030F48130D1F1823009F49EC008958A30EA
:103BE00009F48AC08B3009F46FC0893009F050C0E5
:103BF0008091A902813209F04BC08091AD02909171
:103C0000AE02029708F044C08091E800877F80935D
:103C1000E8008091E80082FF37C09091F300809126
:103C2000F200029731F48091F100813011F086307A
:103C300021F48091F100809382028091E8008B77DB
:103C40008093E8000E949A2023C08091A902813AC3
:103C5000F9F48091E800877F8093E8008091AD02BD
:103C60009091AE02892B61F468E08AE792E070E0FF
:103C70000E94A91F8091E8008B778093E800089547
:103C800060E090E080E0F3CF8091A8028111C1CF85
:103C900008958091A902813AD9F78091AD0290915F
:103CA000AE02892BA9F78091E800877F8093E80016
:103CB0008091E80080FFFCCF809129018093F10082
:103CC0008091E8008E77BCCF8091A902813201F704
:103CD0008091AD029091AE02892BD1F68091E800DF
:103CE000877F8093E8000E949A208091AB028093A6
:103CF00029010E94B30608958091A902813241F6FC
:103D00008091E800877F8093E8000E949A2080914C
:103D1000AC028093830208958091A902813A09F050
:103D2000B7CF8091E800877F8093E8008091E8001A
:103D300080FFFCCF80918302C1CF84B7877F84BF8F
:103D40000FB6F894A8958091600088618093600018
:103D5000109260000FBE80E890E00FB6F894809358
:103D60006100909361000FBE0E94521C08950E9452
:103D7000EA200E944721E2EEF0E0808184608083A7
:103D800078940E94C623089581E291E00E945A1B14
:103D900008958091A802853031F48091A802853081
:103DA00019F00E94CC1C08950E94A11C8091A602CB
:103DB000882399F30E945F1C882379F30E94441F93
:103DC0000E94B306EACF08959A014091AF02509144
:103DD000B0020E94EC1E0895492F5527433051052B
:103DE00019F168F44130510509F444C042305105DD
:103DF00009F445C090E080E050E040E025C0413249
:103E0000510549F142325105A9F780E490E04AE1B9
:103E100053E061157105C1F08BE790E04FE952E086
:103E20006130710589F0E6CF99278130910581F0E5
:103E3000009729F00297F1F6E4E1F2E002C0EEE427
:103E4000F2E0849190E0AF01F9015183408308953D
:103E5000EEE3F2E0F6CF89E090E044E652E061154F
:103E6000710591F389E090E04DE752E06130710512
:103E700059F3C0CF82E190E04DE852E0E5CF8BE30B
:103E800090E042E552E0E0CF80E189BD82E189BD6A
:103E900009B400FEFDCF8091D8008F7D8093D800BB
:103EA0008091E00082608093E0008091E00081FDDD
:103EB000FCCF0895AF92BF92CF92DF92FF920F9303
:103EC0001F93CF93DF936C01EB018A010E94B9200D
:103ED000F82E811123C00115110539F0F8018081F8
:103EE0009181C81BD90BC80ED91EB12CA12C2097CB
:103EF000A9F08091E80085FD22C08091E8008E77CE
:103F00008093E80001151105A1F0F80180819181ED
:103F1000A80EB91EB182A08285E0F82E8F2DDF9108
:103F2000CF911F910F91FF90DF90CF90BF90AF90F6
:103F300008950E94B9208823D1F2F82EEFCFF60120
:103F400081916F018093F1002197FFEFAF1ABF0AB3
:103F5000CECFFC018091AF029091B00286179707F7
:103F6000A0F06115710529F49091E8009E77909377
:103F7000E80090E06115710551F4911108C080913D
:103F8000E80082FF34C080E00895BC01F2CF809148
:103F9000A8028823C1F18530C1F18091E80083FD3A
:103FA00030C08091E80082FDEACF8091E80080FF78
:103FB000E1CF8091F3002091F200382F6115710557
:103FC00019F02830310558F091E02830310509F01A
:103FD00090E02091E8002E772093E800CBCF8191EC
:103FE0008093F100615071092F5F3F4FE7CF8091BF
:103FF000A802882341F0853041F08091E80083FFDA
:10400000BECF81E0089582E0089583E00895FC0129
:104010008091AF029091B00286179707A0F06115CA
:10402000710529F48091E8008E778093E80090E094
:104030006115710551F4911108C08091E80082FF6B
:1040400035C080E00895BC01F2CF8091A80288239A
:10405000C9F18530C9F18091E80083FD31C08091BC
:10406000E80082FDEACF8091E80080FFE1CF8091F7
:10407000F3002091F200382F6115710519F02830F6
:10408000310558F091E02830310509F090E0809139
:10409000E8008E778093E800CBCF84918093F10085
:1040A0003196615071092F5F3F4FE6CF8091A80292
:1040B000882341F0853041F08091E80083FFBDCF37
:1040C00081E0089582E0089583E00895982F973065
:1040D00028F08F708093E90081E008959093E900C3
:1040E000242F762F50E0981731F07091EC0020913A
:1040F000ED005091F00021FD02C09F5FE8CF3091AC
:10410000EB003E7F3093EB003091ED003D7F30932C
:10411000ED003091EB0031603093EB007093EC00D8
:104120002093ED005093F0002091EE0027FDE5CFA5
:1041300080E008958091A90287FF13C08091E80074
:1041400082FF06C08091E8008B778093E80004C06E
:104150008091A8028111F2CF08958091A80288234E
:10416000D9F38091E80080FFF8CF8091E8008E7746
:10417000ECCF2091E4003091E50095E6A901209173
:10418000EC00822F817020FF06C08091E80080FF44
:1041900006C080E008952091E80022FD1AC08091B9
:1041A000A802882389F0853089F08091EB0085FD95
:1041B0000FC02091E4003091E50042175307F9F257
:1041C0009150E1F684E0089582E0089583E0089537
:1041D00081E008950E9459210E946121E0EEF0E003
:1041E000808181608083E8EDF0E080818F7780833B
:1041F00019BCA7EDB0E08C918E7F8C9380818F7E6F
:1042000080831092A70208950F931F93CF93DF939B
:104210000E9459210E946121C8EDD0E088818F77EA
:10422000888388818068888388818F7D888319BC92
:104230001092A8021092A4021092A6021092A50257
:1042400000EE10E0F80180818B7F8083888181609F
:10425000888342E060E080E00E946620E1EEF0E0CA
:1042600080818E7F8083E2EEF0E0808181608083B8
:10427000808188608083F80180818E7F808388813F
:1042800080618883DF91CF911F910F910895E8EDB0
:10429000F0E080818F7E8083E7EDF0E080818160B7
:1042A000808384E082BF81E08093A7020E94042182
:1042B0000895E8EDF0E080818E7F80831092E20027
:1042C00008951092DA001092E10008951F920F9263
:1042D0000FB60F9211242F933F934F935F936F93D9
:1042E0007F938F939F93AF93BF93EF93FF938091AF
:1042F000E10082FF0BC08091E20082FF07C0809145
:10430000E1008B7F8093E1000E94C5238091DA0059
:1043100080FF19C08091D80080FF15C08091DA001D
:104320008E7F8093DA008091D90080FF96C080E173
:1043300089BD82E189BD09B400FEFDCF81E0809393
:10434000A8020E94A61D8091E10080FF19C0809103
:10435000E20080FF15C08091E2008E7F8093E20032
:104360008091E20080618093E2008091D8008062B9
:104370008093D80019BC85E08093A8020E94BA1DE2
:104380008091E10084FF2BC08091E20084FF27C070
:1043900080E189BD82E189BD89B5982F917080FF48
:1043A000FBCF8091D8008F7D8093D8008091E10071
:1043B0008F7E8093E1008091E2008F7E8093E20007
:1043C0008091E20081608093E2008091A4028823C2
:1043D00009F449C084E08093A8020E94C31D809123
:1043E000E10083FF29C08091E20083FF25C0809116
:1043F000E100877F8093E10082E08093A802109221
:10440000A4028091E1008E7F8093E1008091E20020
:104410008E7F8093E2008091E20080618093E200D1
:1044200042E060E080E00E9466208091F0008860B9
:104430008093F0000E94B71DFF91EF91BF91AF9163
:104440009F918F917F916F915F914F913F912F91AC
:104450000F900FBE0F901F90189519BC1092A802D4
:104460000E94B41D70CF8091E30087FD93E090938C
:10447000A802B3CF1F920F920FB60F9211242F9361
:104480003F934F935F936F937F938F939F93AF93DC
:10449000BF93CF93DF93EF93FF93D091E900DF7049
:1044A0008091EC00C82FC17080FDC0E81092E90037
:1044B0008091F000877F8093F00078940E947E22A4
:1044C0001092E9008091F00088608093F000CD2B7D
:1044D000CF70C093E900FF91EF91DF91CF91BF9131
:1044E000AF919F918F917F916F915F914F913F918C
:1044F0002F910F900FBE0F901F901895AAE2B0E079
:10450000E4E8F2E20C941C2489EA92E02091F100A4
:10451000FC012193CF01F2E0813B9F07B9F70E9494
:10452000E31D8091E80083FF1EC18091A902909154
:10453000AA029A3008F017C1E92FF0E0E951FB4DCB
:104540000C940724803899F0823809F00CC18091CE
:10455000AD028F70873008F006C18093E90080912A
:10456000EB0085FB882780F91092E90006C0809156
:10457000A5029091A602911182609091E800977F28
:104580009093E8008093F1001092F1008091E80090
:104590008E77E5C0882309F4D3C0823009F0E3C0E8
:1045A0008091AB028111D6C08091AD028F702FEF48
:1045B000280F263008F0D7C08093E9002091EB0047
:1045C00020FFC8C0933031F48091EB00806280936B
:1045D000EB00C0C09091EB0090619093EB0021E064
:1045E00030E001C0220F8A95EAF72093EA0010928A
:1045F000EA008091EB008860EACF8111B4C010918D
:10460000AB021F778091E3008078812B8093E300D9
:104610008091E800877F8093E8000E949A20809133
:10462000E80080FFFCCF8091E30080688093E30086
:1046300082E0111183E08093A80295C080588230F7
:1046400008F091C08091AB029091AC028C3D23E0C8
:104650009207A1F583E08A838AE289834FB7F894B1
:10466000DE01139620E03EE051E2E32FF0E05093AC
:104670005700E49120FF03C0E295EF703F5FEF70B9
:104680008E2F90E0EA30C0F0C7968D939D932F5FF8
:10469000243159F74FBF8091E800877F8093E8006D
:1046A0006AE270E0CE0101960E94A91F8091E800A5
:1046B0008B778093E80057C0C096E7CF6091AD023A
:1046C0007091AE02AE014F5F5F4F0E94E41EBC01CD
:1046D000892B09F448C09091E800977F9093E800F7
:1046E00089819A810E940720E1CF8038E1F580918D
:1046F000E800877F8093E8008091A4028093F10016
:1047000045CF811130C09091AB02923060F580911D
:10471000E800877F8093E8009093A4020E949A208B
:104720008091A402882311F084E005C08091E30009
:1047300087FDFACF81E08093A8020E94CE1D13C0AE
:104740008091AB02813079F481E0933009F080E010
:104750008093A6021092E9008091E800877F809301
:10476000E8000E949A208091E80083FF0AC08091AF
:10477000E800877F8093E8008091EB00806280935F
:10478000EB00AA96E3E00C9438240895CF9380912F
:10479000A8028823A1F0C091E900CF709091EC00AD
:1047A000892F817090FD80E8C82B1092E9008091DC
:1047B000E80083FD0E947E22CF70C093E900CF9174
:1047C00008950E94EA201092A8020895E8EDF0E012
:1047D0008081806180838AE18A95F1F700C08091B1
:1047E000D9008170089597FB072E16F4009407D026
:1047F00077FD09D00E94442407FC05D03EF4909533
:1048000081959F4F0895709561957F4F0895EE0FA4
:10481000FF1F0590F491E02D09942F923F924F9243
:104820005F926F927F928F929F92AF92BF92CF9240
:10483000DF92EF92FF920F931F93CF93DF93CDB749
:10484000DEB7CA1BDB0B0FB6F894DEBF0FBECDBFC1
:1048500009942A88398848885F846E847D848C8492
:104860009B84AA84B984C884DF80EE80FD800C819B
:104870001B81AA81B981CE0FD11D0FB6F894DEBF7E
:104880000FBECDBFED010895AA1BBB1B51E107C0B0
:10489000AA1FBB1FA617B70710F0A61BB70B881FD0
:1048A000991F5A95A9F780959095BC01CD0108955F
:1048B000FB01DC0104C08D910190801921F441506D
:1048C0005040C8F7881B990B0895FB01DC0102C01A
:1048D00001900D9241505040D8F70895F999FECFBC
:1048E00092BD81BDF89A992780B50895A8E1B0E0FE
:1048F00042E050E00C94A224262FF999FECF92BDFD
:1049000081BDF89A019700B4021639F01FBA20BD94
:104910000FB6F894FA9AF99A0FBE08950396272FC6
:104920000E947D240E947C24252F0E947D24242F18
:104930000C947D240196272F0E947D240C947C24C6
:10494000DC01CB01FC01F999FECF06C0F2BDE1BD4F
:10495000F89A319600B40D9241505040B8F708953E
:10496000F894FFCF96049604E704E7045A05760509
:10497000C504C5047B05EC05FB05FB05F8166C17A3
:104980000017CA16CE160417D21608171417DE160B
:104990006517E2161817E6161C174417EA162017B3
:1049A0004B17F01626172E17D6160C17DA161017F7
:1049B000F4162A173A1754176317C416FC16731700
:1049C00074197A1963196E19801986198C19A22223
:1049D000CA22B323CA22B323FD221E23B323752385
:0249E000812331
:1049E20018020100000001000000000000000501A3
:1049F20000000004060000000000002808503C07E8
:104A0200145D1D921D8B1D841D01E200E900EA0068
:104A1200B500B600B700CD008301CC008A01920137
:104A220094012102230224022502260227022A02DD
:104A3200B300B4006F0070009F01CB019F02A0027F
:104A4200818283E200E900EA00B500B600B700CD3A
:104A5200008301CC008A01920194012102230224E5
:104A6200022502260227022A02B300B4006F007058
:104A7200009F01CB019F02A002818283946697C6A8
:0A4A82003435F7313332363F0200BD
:00000001FF
